:100000000C948A000C94B2000C94B2000C94B200D0
:100010000C94B2000C94B2000C94B2000C94B20098
:100020000C94B2000C94B2000C94B2000C94B20088
:100030000C94B2000C94B2000C94B2000C94B20078
:100040000C949A030C94B2000C9468030C94420331
:100050000C94B2000C94B2000C94B2000C94B20058
:100060000C94B2000C94B20008000000BE92244927
:10007000123EABAAAA2ABECDCCCC4C3E00000080DA
:10008000BEABAAAAAA3E00000000BF000000803F4D
:100090000000000000084178D3BB4387D1133D190D
:1000A0000E3CC3BD4282AD2B3E68EC8276BED98F3A
:1000B000E1A93E4C80EFFFBE01C4FF7F3F0000007E
:1000C0000000000000080002010000030407000017
:1000D00000000000000000000000250028002B00A8
:1000E00000000000240027002A0004040404040483
:1000F00004040202020202020303030303030102D7
:1001000004081020408001020408102001020408A5
:100110001020E40311241FBECFEFD8E0DEBFCDBF17
:1001200011E0A0E0B1E0EAE0F4E102C005900D9238
:10013000A633B107D9F721E0A6E3B1E001C01D92D3
:10014000A83FB207E1F710E0CAE8D0E004C0219769
:10015000FE010E94FD09C938D107C9F70E94FF04BA
:100160000C94030A0C94000090E0FC01E250FF4F55
:10017000249186519F4FFC018491882399F090E04F
:10018000880F991FFC01E052FF4FA591B491FC012B
:10019000EA52FF4F859194918FB7F894EC91E22B3E
:1001A000EC938FBF0895AF92BF92CF92DF92EF9200
:1001B000FF920F931F93CF93DF936C017B018B0111
:1001C000040F151FEB015E01AE18BF08C017D10761
:1001D00059F06991D601ED91FC910190F081E02DEB
:1001E000C6010995892B79F7C501DF91CF911F9140
:1001F0000F91FF90EF90DF90CF90BF90AF90089558
:10020000FC01538D448D252F30E0842F90E0821B1C
:10021000930B541710F0CF96089501970895FC01A1
:10022000918D828D981761F0A28DAE0FBF2FB11DF9
:100230005D968C91928D9F5F9F73928F90E0089551
:100240008FEF9FEF0895FC01918D828D981731F00B
:10025000828DE80FF11D858D90E008958FEF9FEF5F
:100260000895FC01918D228D892F90E0805C9F4F35
:10027000821B91098F739927089583E491E00E946E
:10028000310121E0892B09F420E0822F089580E0DC
:1002900090E0892B29F00E943D0181110C9400000F
:1002A0000895FC01A48DA80FB92FB11DA35ABF4F0B
:1002B0002C91848D90E001968F739927848FA68965
:1002C000B7892C93A089B1898C91837080648C93B9
:1002D000938D848D981306C00288F389E02D808168
:1002E0008F7D80830895EF92FF920F931F93CF939A
:1002F000DF93EC0181E0888F9B8D8C8D98131AC061
:10030000E889F989808185FF15C09FB7F894EE8947
:10031000FF896083E889F9898081837080648083A4
:100320009FBF81E090E0DF91CF911F910F91FF90EF
:10033000EF900895F62E0B8D10E00F5F1F4F0F7397
:100340001127E02E8C8D8E110CC00FB607FCFACF52
:10035000E889F989808185FFF5CFCE010E9451019E
:10036000F1CFEB8DEC0FFD2FF11DE35AFF4FF08223
:100370009FB7F8940B8FEA89FB8980818062CFCF89
:10038000CF93DF93EC01888D8823B9F0AA89BB89CC
:10039000E889F9898C9185FD03C0808186FD0DC0B7
:1003A0000FB607FCF7CF8C9185FFF2CF808185FFD8
:1003B000EDCFCE010E945101E9CFDF91CF91089599
:1003C00090E0FC01EE53FF4F2491FC01E250FF4FFF
:1003D0003491FC01E651FF4FE491EE23C9F0222352
:1003E00039F0233001F1A8F4213019F1223029F13C
:1003F000F0E0EE0FFF1FEA52FF4FA591B4918FB7C7
:10040000F894EC91611126C030953E233C938FBF48
:1004100008952730A9F02830C9F0243049F7809199
:1004200080008F7D03C0809180008F778093800053
:10043000DFCF84B58F7784BDDBCF84B58F7DFBCFD5
:100440008091B0008F778093B000D2CF8091B000C0
:100450008F7DF9CF3E2BDACF3FB7F89480913B01E7
:1004600090913C01A0913D01B0913E0126B5A89B21
:1004700005C02F3F19F00196A11DB11D3FBFBA2F36
:10048000A92F982F8827BC01CD01620F711D811DF6
:10049000911D42E0660F771F881F991F4A95D1F77B
:1004A0000895089590E080E00895FC0101900020F7
:1004B000E9F73197AF01481B590BBC0180EE91E081
:1004C0000C94D3008F929F92AF92BF920F931F9381
:1004D000CF93DF93CDB7DEB7A1970FB6F894DEBF09
:1004E0000FBECDBF19A2423008F44AE08E010F5D65
:1004F0001F4F842E912CB12CA12CA50194010E9498
:10050000DB09E62FB901CA01EA30F4F4E05DD80155
:10051000EE938D01232B242B252B79F790E080E09F
:10052000109719F0CD010E945502A1960FB6F894CC
:10053000DEBF0FBECDBFDF91CF911F910F91BF9056
:10054000AF909F908F900895E95CE1CFCF93DF93B8
:10055000EC0160E08E810E94E00161E08E810E94EA
:10056000E00160E08E810E94E0018BE891E001975C
:10057000F1F7DF91CF910895CF92DF92EF92FF9242
:100580000F931F93CF93DF936C017C0187E0E80EFC
:10059000F11CD0E0C0E0062F10E0B8010C2E02C024
:1005A000759567950A94E2F76170F70181917F0173
:1005B0000E94E0012196C430D10579F7C601DF9190
:1005C000CF911F910F91FF90EF90DF90CF900C94FF
:1005D000A602CF92DF92EF92FF920F931F93CF93D9
:1005E000DF93EC01F62E642F8C810E94E0018D8157
:1005F0008F3F19F060E00E94E0010F2D10E08F8521
:1006000084FF25C06E0187E0C80ED11CF12CE12CBF
:10061000B8010E2C02C0759567950A94E2F76170D7
:10062000F60181916F010E94E001FFEFEF1AFF0ACE
:1006300088E0E816F10461F7CE01DF91CF911F91B8
:100640000F91FF90EF90DF90CF900C94A602B8012D
:1006500084E0759567958A95E1F7CE010E94BC020A
:100660006F2DCE01DF91CF911F910F91FF90EF90F1
:10067000DF90CF900C94BC0241E00E94E90281E03F
:1006800090E008951F920F920FB60F9211242F93AE
:100690003F934F935F936F937F938F939F93AF930A
:1006A000BF93EF93FF9383E491E00E945101FF9188
:1006B000EF91BF91AF919F918F917F916F915F91DA
:1006C0004F913F912F910F900FBE0F901F90189553
:1006D0001F920F920FB60F9211242F938F939F9317
:1006E000EF93FF93E0915301F09154018081E091E9
:1006F0005901F0915A0182FD1BC0908180915C01EB
:100700008F5F8F7320915D01821741F0E0915C0152
:10071000F0E0ED5BFE4F958F80935C01FF91EF91D0
:100720009F918F912F910F900FBE0F901F90189552
:100730008081F4CF1F920F920FB60F9211242F9346
:100740003F938F939F93AF93BF9380913701909185
:100750003801A0913901B0913A013091360123E07E
:10076000230F2D3758F50196A11DB11D2093360199
:100770008093370190933801A0933901B0933A01E7
:1007800080913B0190913C01A0913D01B0913E01CF
:100790000196A11DB11D80933B0190933C01A09354
:1007A0003D01B0933E01BF91AF919F918F913F91D9
:1007B0002F910F900FBE0F901F90189526E8230FD2
:1007C0000296A11DB11DD2CFCF93DF9310924601A7
:1007D0001092450188EE93E0A0E0B0E080934701DD
:1007E00090934801A0934901B0934A0184E091E0BD
:1007F000909344018093430185EC90E090935001E5
:1008000080934F0184EC90E09093520180935101CA
:1008100080EC90E0909354018093530181EC90E040
:10082000909356018093550182EC90E0909358018B
:100830008093570186EC90E090935A018093590180
:1008400010925C0110925D0110925E0110925F01A6
:100850001092E3011092E20186E191E09093E101B0
:100860008093E0018CE08093E4018FEF8093E501B9
:100870008BE08093E60187E08093E70186E0809338
:10088000E80185E08093E90184E08093EA01109219
:10089000EB011092EC011092ED011092EE0110921A
:1008A000EF0181E08093F3011092F40180E48093E2
:1008B000F50180E18093F60180E58093F7018CE0FB
:1008C0000E94B4008091E5018F3F11F00E94B400B6
:1008D0008091E6010E94B400C0EED1E09E01205E4E
:1008E00031408091EF0184FD0AC084E090E02196C0
:1008F000281739073CF48E810E94B400EFCF88E0BE
:1009000090E0F5CF8BE39DE00197F1F760E08091F7
:10091000E4010E94E00160E08091E6010E94E001B4
:100920008091E5018F3F19F060E00E94E001609145
:10093000EF0164FD45C063E080EE91E00E94BC02DF
:10094000CBE4D6E4CE010197F1F763E080EE91E0CD
:100950000E94BC022197F1F763E080EE91E00E94D3
:10096000BC0283E592E00197F1F762E080EE91E04E
:100970000E94BC026091EF01606240E080EE91E075
:100980000E94E90284E08093F00140E06CE080EE98
:1009900091E00E94E90240E061E080EE91E00E9477
:1009A000E9028BE39FE10197F1F782E08093F10187
:1009B00040E066E080EE91E0DF91CF910C94E90297
:1009C000606240E080EE91E00E94E9028BE496E4F0
:1009D0000197F1F76091EF01606240E080EE91E0F5
:1009E0000E94E90283E592E00197F1F76091EF013F
:1009F000606240E080EE91E00E94E902BBCF789413
:100A000084B5826084BD84B5816084BD85B5826013
:100A100085BD85B5816085BD80916E0081608093C4
:100A20006E0010928100809181008260809381002D
:100A3000809181008160809381008091800081603D
:100A4000809380008091B10084608093B100809198
:100A5000B00081608093B00080917A0084608093C0
:100A60007A0080917A00826080937A0080917A0087
:100A7000816080937A0080917A00806880937A0008
:100A80001092C100E0915301F091540182E0808303
:100A9000E0914F01F09150011082E0915101F091ED
:100AA00052018FEC808310925B01E0915701F0912D
:100AB000580186E08083E0915501F09156018081D4
:100AC00080618083E0915501F091560180818860BA
:100AD0008083E0915501F091560180818068808388
:100AE000E0915501F091560180818F7D80838AE0ED
:100AF0000E94B40090E4B92ECBE3DFE100E010E007
:100B0000B0927C0080917A00806480937A0080911A
:100B10007A0086FDFCCF8091780060917900762F75
:100B2000682F072E000C880B990B0E942F089B0141
:100B3000AC0160E070EC8FE794E40E948C0720E049
:100B400030E040E85FE30E941A0720E030E44CE127
:100B500056E40E9434090E94EC086B017C012CE6EB
:100B60003FEC48E554E30E943409A70196010E9436
:100B70003409A70196010E9434092B013C0126ED9E
:100B800034E649E759E3C701B6010E9434092BEC6A
:100B900038E444E85AE30E941B079B01AC01C301FF
:100BA000B2010E941B079B01AC0160E070E080E88D
:100BB0009FE30E948C0723E333E948E853E40E9453
:100BC0001A0720E030E040E151E40E94340920E0BF
:100BD00030E040EA50E40E948C0720E030E040E042
:100BE00052E40E941B0760933F0170934001809381
:100BF0004101909342018EE191E00E945502C09024
:100C00003F01D0904001E0904101F0904201A701E6
:100C10009601C701B6010E94A109882309F476C094
:100C200086E291E00E94550282E391E00E94550223
:100C30000E942C022B013C0184EFC82EDD24D394AA
:100C4000E12CF12C0E942C02641975098609970980
:100C5000683E734081059105A8F321E0C21AD108CE
:100C6000E108F10888EE480E83E0581E611C711CF3
:100C7000C114D104E104F10429F740E061E080EE01
:100C800091E00E94E902CE010197F1F7C0903F0187
:100C9000D0904001E0904101F090420120E030E02E
:100CA00048EC52E4C701B6010E94DF0887FD0BC083
:100CB00020E030E048E453E4C701B6010E94870712
:100CC00061E01816A4F420E030E0A901C701B601E4
:100CD0000E94DF0887FD0EC020E030E048EC52E4BF
:100CE000C701B6010E94870787FF04C060E08AE061
:100CF0000E94E0010115110509F402CF0E943D0197
:100D0000882309F4FDCE0E940000FACE26013701A7
:100D1000E89477F82FEF3FEF4FE75FE7C301B201A9
:100D20000E94A10981110DC02FEF3FEF4FE75FE750
:100D3000C301B2010E94870718161CF48AE291E0F1
:100D400071CF2FEF3FEF4FE75FE4C701B6010E947D
:100D5000DF0818161CF48EE291E064CF2FEF3FEF0E
:100D60004FE75FECC701B6010E94870787FDF3CF0D
:100D700020E030E0A901C701B6010E94870787FF84
:100D80000AC041E06DE280EE91E00E94E902F7FACC
:100D9000F094F7F8F0942AE037ED43EA5BE3C701FB
:100DA000B6010E941B072B013C010E94FE076B014C
:100DB0007C010E942D089B01AC01C301B2010E947D
:100DC0001A072B013C014AE0C701B6010E946202EA
:100DD00041E06EE280EE91E00E94E90220E030E026
:100DE00040E251E4C301B2010E9434092B013C01ED
:100DF0000E94FE076B01F12CE12C4AE0C701B6010D
:100E00000E946202C701B6010E942D089B01AC013D
:100E1000C301B2010E941A0720E030E040E251E431
:100E20000E9434090E94FE0790E080E04AE00E94A0
:100E30006202FACE5058BB27AA270E9432070C94B0
:100E4000A5080E94970838F00E949E0820F039F407
:100E50009F3F19F426F40C9494080EF4E095E7FBF8
:100E60000C948E08E92F0E94B60858F3BA1762074F
:100E700073078407950720F079F4A6F50C94D80839
:100E80000EF4E0950B2EBA2FA02D0B01B9019001A5
:100E90000C01CA01A0011124FF27591B99F0593FE9
:100EA00050F4503E68F11A16F040A22F232F342F31
:100EB0004427585FF3CF469537952795A795F0407F
:100EC0005395C9F77EF41F16BA0B620B730B840B94
:100ED000BAF09150A1F0FF0FBB1F661F771F881F4C
:100EE000C2F70EC0BA0F621F731F841F48F48795A4
:100EF00077956795B795F7959E3F08F0B0CF939596
:100F0000880F08F09927EE0F9795879508950E940E
:100F10006A0808F481E008950E94A0070C94A508CF
:100F20000E949E0858F00E94970840F029F45F3F05
:100F300029F00C948E0851110C94D9080C94940843
:100F40000E94B60868F39923B1F3552391F3951BDA
:100F5000550BBB27AA2762177307840738F09F5FDA
:100F60005F4F220F331F441FAA1FA9F335D00E2E47
:100F70003AF0E0E832D091505040E695001CCAF7B4
:100F80002BD0FE2F29D0660F771F881FBB1F261777
:100F900037074807AB07B0E809F0BB0B802DBF014E
:100FA000FF2793585F4F3AF09E3F510578F00C941D
:100FB0008E080C94D9085F3FE4F3983ED4F38695ED
:100FC00077956795B795F7959F5FC9F7880F911D3E
:100FD0009695879597F90895E1E0660F771F881F2A
:100FE000BB1F621773078407BA0720F0621B730BDD
:100FF000840BBA0BEE1F88F7E09508950E94BE0897
:1010000088F09F5798F0B92F9927B751B0F0E1F0C9
:10101000660F771F881F991F1AF0BA95C9F714C079
:10102000B13091F00E94D808B1E008950C94D8082E
:10103000672F782F8827B85F39F0B93FCCF38695B2
:1010400077956795B395D9F73EF49095809570950F
:1010500061957F4F8F4F9F4F0895E89409C097FB8C
:101060003EF490958095709561957F4F8F4F9F4F7F
:101070009923A9F0F92F96E9BB279395F6958795C3
:1010800077956795B795F111F8CFFAF4BB0F11F486
:1010900060FF1BC06F5F7F4F8F4F9F4F16C088232D
:1010A00011F096E911C0772321F09EE8872F762F63
:1010B00005C0662371F096E8862F70E060E02AF0A4
:1010C0009A95660F771F881FDAF7880F9695879590
:1010D00097F90895990F0008550FAA0BE0E8FEEF65
:1010E00016161706E807F907C0F012161306E407EC
:1010F000F50798F0621B730B840B950B39F40A26E5
:1011000061F0232B242B252B21F408950A2609F4C2
:10111000A140A6958FEF811D811D089597F99F67C6
:1011200080E870E060E008959FEF80EC089500246F
:101130000A941616170618060906089500240A943C
:1011400012161306140605060895092E0394000CC2
:1011500011F4882352F0BB0F40F4BF2B11F460FF51
:1011600004C06F5F7F4F8F4F9F4F089557FD90587A
:10117000440F551F59F05F3F71F04795880F97FB5B
:10118000991F61F09F3F79F0879508951216130615
:101190001406551FF2CF4695F1DF08C01616170644
:1011A0001806991FF1CF8695710561050894089579
:1011B000E894BB2766277727CB0197F908950E940B
:1011C0006A0808F48FEF089516F00C94A6090C94A1
:1011D000940868940C948E080E94BE08A8F3992382
:1011E000C1F3AEF3DF93CF931F930F93FF92C92FF9
:1011F000DD2788232AF02197660F771F881FDAF7EB
:1012000020E030E040E85FEB9FE3883920F0803E4B
:1012100038F021968F770E941B07E8E6F0E004C0C3
:101220000E941B07E5E9F0E00E94B4098B01BE01B2
:10123000EC01FB2E6F5771097595771F880B990B81
:101240000E942F0828E132E741E35FE30E9447094B
:10125000AF2D9801AE01FF900F911F91CF91DF91BB
:101260000E9432070C94A5080E9447090C94A50817
:101270000E94970838F00E949E0820F0952311F0F4
:101280000C948E080C94940811240C94D9080E9494
:10129000B60870F3959FC1F3950F50E0551F629FFC
:1012A000F001729FBB27F00DB11D639FAA27F00DBF
:1012B000B11DAA1F649F6627B00DA11D661F829FE6
:1012C0002227B00DA11D621F739FB00DA11D621FCB
:1012D000839FA00D611D221F749F3327A00D611DE8
:1012E000231F849F600D211D822F762F6A2F1124CA
:1012F0009F5750409AF0F1F088234AF0EE0FFF1FFD
:10130000BB1F661F771F881F91505040A9F79E3F53
:10131000510580F00C948E080C94D9085F3FE4F3DB
:10132000983ED4F3869577956795B795F795E795A9
:101330009F5FC1F7FE2B880F911D9695879597F9B2
:1013400008950E946A08880B990B08959F3F31F019
:10135000915020F4879577956795B795880F911DE3
:101360009695879597F90895DF93CF931F930F93E1
:10137000FF92EF92DF927B018C01689406C0DA2E17
:10138000EF010E944709FE01E894A591259135914E
:1013900045915591A6F3EF010E943207FE01970196
:1013A000A801DA9469F7DF90EF90FF900F911F91F9
:1013B000CF91DF910895A1E21A2EAA1BBB1BFD015C
:1013C0000DC0AA1FBB1FEE1FFF1FA217B307E40724
:1013D000F50720F0A21BB30BE40BF50B661F771F7C
:1013E000881F991F1A9469F760957095809590955C
:1013F0009B01AC01BD01CF010895EE0FFF1F0590C9
:0A140000F491E02D0994F894FFCF59
:10140A00000000007301D3000001C00131010F0187
:10141A002301000000003C03D3005202510254652C
:10142A006D70203D20006E616E00696E66006F76F9
:06143A00660020460000E0
:00000001FF
